:100000000C9461000C947E000C947E000C947E0095
:100010000C947E000C947E000C947E000C947E0068
:100020000C947E000C947E000C947E000C947E0058
:100030000C947E000C947E000C947E000C947E0048
:100040000C943A030C947E000C947E000C947E0079
:100050000C947E000C947E000C947E000C947E0028
:100060000C947E000C947E00000000002400270009
:100070002A0000000000250028002B0000000000DE
:1000800023002600290004040404040404040202DA
:100090000202020203030303030301020408102007
:1000A0004080010204081020010204081020000012
:1000B0000007000201000003040600000000000029
:1000C000000011241FBECFEFD8E0DEBFCDBF11E08E
:1000D000A0E0B1E0EAE7F9E002C005900D92A2309D
:1000E000B107D9F711E0A2E0B1E001C01D92AB3039
:1000F000B107E1F70E94AA040C94BB040C94000021
:1001000082E060E00E94550483E060E00E945504B4
:1001100084E060E00E94550485E060E00E945504A0
:1001200086E060E00E94550487E060E00E9455048C
:1001300088E060E00E94550489E060E00E94550478
:100140008AE060E00E9455048BE061E00E94550463
:10015000089582E060E00E94550483E060E00E9420
:10016000550484E060E00E94550485E060E00E9450
:10017000550486E060E00E94550487E060E00E943C
:10018000550488E060E00E94550489E060E00E9428
:1001900055048AE061E00E9455048BE060E00E9413
:1001A0005504089582E060E00E94550483E060E019
:1001B0000E94550484E060E00E94550485E060E000
:1001C0000E94550486E060E00E94550487E060E0EC
:1001D0000E94550488E060E00E94550489E061E0D7
:1001E0000E9455048AE060E00E9455048BE060E0C4
:1001F0000E945504089582E060E00E94550483E067
:1002000060E00E94550484E060E00E94550485E0AF
:1002100060E00E94550486E060E00E94550487E09B
:1002200060E00E94550488E061E00E94550489E086
:1002300060E00E9455048AE060E00E9455048BE073
:1002400060E00E945504089582E060E00E94550439
:1002500083E060E00E94550484E060E00E94550461
:1002600085E060E00E94550486E060E00E9455044D
:1002700087E061E00E94550488E060E00E94550438
:1002800089E060E00E9455048AE060E00E94550425
:100290008BE060E00E945504089582E060E00E94D7
:1002A000550483E060E00E94550484E060E00E9411
:1002B000550485E060E00E94550486E061E00E94FC
:1002C000550487E060E00E94550488E060E00E94E9
:1002D000550489E060E00E9455048AE060E00E94D5
:1002E00055048BE060E00E945504089582E060E0D0
:1002F0000E94550483E060E00E94550484E060E0C1
:100300000E94550485E061E00E94550486E060E0AB
:100310000E94550487E060E00E94550488E060E098
:100320000E94550489E060E00E9455048AE060E084
:100330000E9455048BE060E00E945504089582E01D
:1003400060E00E94550483E060E00E94550484E070
:1003500061E00E94550485E060E00E94550486E05B
:1003600060E00E94550487E060E00E94550488E048
:1003700060E00E94550489E060E00E9455048AE034
:1003800060E00E9455048BE060E00E9455040895EF
:1003900082E060E00E94550483E061E00E94550421
:1003A00084E060E00E94550485E060E00E9455040E
:1003B00086E060E00E94550487E060E00E945504FA
:1003C00088E060E00E94550489E060E00E945504E6
:1003D0008AE060E00E9455048BE060E00E945504D2
:1003E000089582E061E00E94550483E060E00E948D
:1003F000550484E060E00E94550485E060E00E94BE
:10040000550486E060E00E94550487E060E00E94A9
:10041000550488E060E00E94550489E060E00E9495
:1004200055048AE060E00E9455048BE060E00E9481
:10043000550408950E9480006091000170910101AF
:10044000882777FD8095982F0E9482030E94A9003B
:100450006091000170910101882777FD8095982FA8
:100460000E9482030E94D2006091000170910101FC
:10047000882777FD8095982F0E9482030E94FB00B9
:100480006091000170910101882777FD8095982F78
:100490000E9482030E942401609100017091010179
:1004A000882777FD8095982F0E9482030E944D0136
:1004B0006091000170910101882777FD8095982F48
:1004C0000E9482030E9476016091000170910101F7
:1004D000882777FD8095982F0E9482030E949F01B4
:1004E0006091000170910101882777FD8095982F18
:1004F0000E9482030E94C801609100017091010175
:10050000882777FD8095982F0E9482030E94F10131
:100510006091000170910101882777FD8095982FE7
:100520000E94820308950E94F10160910001709180
:100530000101882777FD8095982F0E9482030E94F1
:10054000C8016091000170910101882777FD8095B5
:10055000982F0E9482030E949F0160910001709178
:100560000101882777FD8095982F0E9482030E94C1
:1005700076016091000170910101882777FD8095D7
:10058000982F0E9482030E944D016091000170919A
:100590000101882777FD8095982F0E9482030E9491
:1005A00024016091000170910101882777FD8095F9
:1005B000982F0E9482030E94FB00609100017091BD
:1005C0000101882777FD8095982F0E9482030E9461
:1005D000D2006091000170910101882777FD80951C
:1005E000982F0E9482030E94A900609100017091DF
:1005F0000101882777FD8095982F0E9482030E9431
:1006000080006091000170910101882777FD80953D
:10061000982F0E94820308950E9493020E941A025A
:10062000089582E061E00E94160483E061E00E9488
:10063000160484E061E00E94160485E061E00E94F7
:10064000160486E061E00E94160487E061E00E94E3
:10065000160488E061E00E94160489E061E00E94CF
:1006600016048AE061E00E9416048BE061E00E94BB
:10067000160408951F920F920FB60F9211242F9314
:100680003F938F939F93AF93BF9380910601909177
:100690000701A0910801B091090130910A0101966A
:1006A000A11DB11D232F2D5F2D3720F02D57019651
:1006B000A11DB11D20930A018093060190930701AB
:1006C000A0930801B0930901809102019091030168
:1006D000A0910401B09105010196A11DB11D809367
:1006E000020190930301A0930401B0930501BF910F
:1006F000AF919F918F913F912F910F900FBE0F90CF
:100700001F9018959B01AC017FB7F894809102016E
:1007100090910301A0910401B091050166B5A89BD9
:1007200005C06F3F19F00196A11DB11D7FBFBA2F03
:10073000A92F982F8827860F911DA11DB11D62E05A
:10074000880F991FAA1FBB1F6A95D1F7BC012DC046
:10075000FFB7F8948091020190910301A0910401E8
:10076000B0910501E6B5A89B05C0EF3F19F00196D1
:10077000A11DB11DFFBFBA2FA92F982F88278E0F5B
:10078000911DA11DB11DE2E0880F991FAA1FBB1F7B
:10079000EA95D1F7861B970B885E9340C8F22150EB
:1007A00030404040504068517C4F21153105410593
:1007B000510571F60895789484B5826084BD84B53E
:1007C000816084BD85B5826085BD85B5816085BD4C
:1007D000EEE6F0E0808181608083E1E8F0E0108265
:1007E000808182608083808181608083E0E8F0E0A6
:1007F000808181608083E1EBF0E080818460808390
:10080000E0EBF0E0808181608083EAE7F0E08081C6
:100810008460808380818260808380818160808326
:100820008081806880831092C1000895CF93DF9308
:10083000482F50E0CA0186569F4FFC0134914A5719
:100840005F4FFA018491882369F190E0880F991F26
:10085000FC01E859FF4FA591B491FC01EE58FF4F00
:10086000C591D491662351F42FB7F8948C91932FAE
:10087000909589238C93888189230BC0623061F421
:100880002FB7F8948C91932F909589238C9388811E
:10089000832B88832FBF06C09FB7F8948C91832B3E
:1008A0008C939FBFDF91CF910895482F50E0CA01EC
:1008B00082559F4FFC012491CA0186569F4FFC012F
:1008C00094914A575F4FFA013491332309F440C0A1
:1008D000222351F1233071F0243028F42130A1F08B
:1008E000223011F514C02630B1F02730C1F0243089
:1008F000D9F404C0809180008F7703C0809180007C
:100900008F7D8093800010C084B58F7702C084B53E
:100910008F7D84BD09C08091B0008F7703C0809126
:10092000B0008F7D8093B000E32FF0E0EE0FFF1F4B
:10093000EE58FF4FA591B4912FB7F894662321F498
:100940008C919095892302C08C91892B8C932FBF19
:1009500008950895CF93DF930E94DB030E94A904BA
:100960000E941103C0E0D0E00E940C032097E1F345
:0A0970000E940000F9CFF894FFCFB9
:02097A000A0071
:00000001FF
