:100000000C9461000C947E000C947E000C947E0095
:100010000C947E000C947E000C947E000C947E0068
:100020000C947E000C947E000C947E000C947E0058
:100030000C947E000C947E000C947E000C947E0048
:100040000C9449030C947E000C947E000C947E006A
:100050000C947E000C947E000C947E000C947E0028
:100060000C947E000C947E00000000002400270009
:100070002A0000000000250028002B0000000000DE
:1000800023002600290004040404040404040202DA
:100090000202020203030303030301020408102007
:1000A0004080010204081020010204081020000012
:1000B0000007000201000003040600000000000029
:1000C000000011241FBECFEFD8E0DEBFCDBF11E08E
:1000D000A0E0B1E0E8E1FCE002C005900D92AA309A
:1000E000B107D9F711E0AAE0B1E001C01D92A93132
:1000F000B107E1F70E943C050C940A060C9400003D
:10010000A0E0B0E0E6E8F0E00C94DB05EC01A880AC
:10011000B980CA80DB80A114B104C104D10441F4C8
:1001200084E2A82E89EDB82E8BE5C82E87E0D82E64
:10013000C601B5012DE133EF41E050E00E94960584
:1001400027EA31E440E050E00E9477057B018C0112
:10015000C601B5012DE133EF41E050E00E94960564
:10016000CA01B9012CEE34EF4FEF5FEF0E94770523
:100170006E0D7F1D801F911F97FF04C0615070405E
:1001800080409048688379838A839B839B01AC017C
:100190005F77B901CA01CDB7DEB7EAE00C94F70585
:1001A0000E948000089580E091E00E948000089500
:1001B0006093000170930101809302019093030109
:1001C000089582E060E00E94940483E060E00E9471
:1001D000940484E060E00E94940485E060E00E9462
:1001E000940486E060E00E94940487E060E00E944E
:1001F000940488E060E00E94940489E060E00E943A
:1002000094048AE060E00E9494048BE061E00E9424
:100210009404089582E060E00E94940483E060E02A
:100220000E94940484E060E00E94940485E060E011
:100230000E94940486E060E00E94940487E060E0FD
:100240000E94940488E060E00E94940489E060E0E9
:100250000E9494048AE061E00E9494048BE060E0D4
:100260000E949404089582E060E00E94940483E078
:1002700060E00E94940484E060E00E94940485E0C1
:1002800060E00E94940486E060E00E94940487E0AD
:1002900060E00E94940488E060E00E94940489E099
:1002A00061E00E9494048AE060E00E9494048BE084
:1002B00060E00E949404089582E060E00E9494044B
:1002C00083E060E00E94940484E060E00E94940473
:1002D00085E060E00E94940486E060E00E9494045F
:1002E00087E060E00E94940488E061E00E9494044A
:1002F00089E060E00E9494048AE060E00E94940437
:100300008BE060E00E949404089582E060E00E9427
:10031000940483E060E00E94940484E060E00E9422
:10032000940485E060E00E94940486E060E00E940E
:10033000940487E061E00E94940488E060E00E94F9
:10034000940489E060E00E9494048AE060E00E94E6
:1003500094048BE060E00E949404089582E060E0E1
:100360000E94940483E060E00E94940484E060E0D2
:100370000E94940485E060E00E94940486E061E0BD
:100380000E94940487E060E00E94940488E060E0AA
:100390000E94940489E060E00E9494048AE060E096
:1003A0000E9494048BE060E00E949404089582E02F
:1003B00060E00E94940483E060E00E94940484E082
:1003C00060E00E94940485E061E00E94940486E06D
:1003D00060E00E94940487E060E00E94940488E05A
:1003E00060E00E94940489E060E00E9494048AE046
:1003F00060E00E9494048BE060E00E949404089501
:1004000082E060E00E94940483E060E00E94940433
:1004100084E061E00E94940485E060E00E9494041E
:1004200086E060E00E94940487E060E00E9494040B
:1004300088E060E00E94940489E060E00E949404F7
:100440008AE060E00E9494048BE060E00E949404E3
:10045000089582E060E00E94940483E061E00E94DD
:10046000940484E060E00E94940485E060E00E94CF
:10047000940486E060E00E94940487E060E00E94BB
:10048000940488E060E00E94940489E060E00E94A7
:1004900094048AE060E00E9494048BE060E00E9493
:1004A0009404089582E061E00E94940483E060E097
:1004B0000E94940484E060E00E94940485E060E07F
:1004C0000E94940486E060E00E94940487E060E06B
:1004D0000E94940488E060E00E94940489E060E057
:1004E0000E9494048AE060E00E9494048BE060E043
:1004F0000E94940408956AE070E080E090E00E9419
:100500004D056430710599F16530710584F46130F1
:10051000710521F1623071051CF4672BE1F008953B
:1005200062307105F1F06330710591F51DC06730DF
:10053000710531F1683071053CF465307105D1F019
:100540006630710529F519C068307105E1F0693030
:100550007105F1F41BC00E94520208950E94290205
:1005600008950E94000208950E94D70108950E94F4
:10057000AE0108950E94850108950E945C010895CE
:100580000E94330108950E940A0108950E94E1002B
:1005900008951F938CE00E94E804182F80910B01AE
:1005A000181751F00E94910360930C0170930D0194
:1005B00080930E0190930F010E94910320910C01F2
:1005C00030910D0140910E0150910F01621B730B90
:1005D000840B950B20910501309106014091070194
:1005E00050910801261737074807590780F4809172
:1005F0000401181761F010930401112341F490E0F5
:1006000080910A01882309F491E090930A01809176
:100610000A01882341F00E947B026AE070E080E0DA
:1006200090E00E949F0310930B011F91089582E0B8
:1006300061E00E94550483E061E00E94550484E07B
:1006400061E00E94550485E061E00E94550486E067
:1006500061E00E94550487E061E00E94550488E053
:1006600061E00E94550489E061E00E9455048AE03F
:1006700061E00E9455048BE061E00E94550480E037
:100680000E9433040E946F058CE062E00E945504D2
:1006900008951F920F920FB60F9211242F933F933C
:1006A0008F939F93AF93BF93809114019091150105
:1006B000A0911601B0911701309118010196A11D6A
:1006C000B11D232F2D5F2D3720F02D570196A11D31
:1006D000B11D209318018093140190931501A093EC
:1006E0001601B09317018091100190911101A09112
:1006F0001201B09113010196A11DB11D809310014B
:1007000090931101A0931201B0931301BF91AF9187
:100710009F918F913F912F910F900FBE0F901F903F
:1007200018958FB7F89420911401309115014091DC
:100730001601509117018FBFB901CA0108959B019D
:10074000AC017FB7F8948091100190911101A091B4
:100750001201B091130166B5A89B05C06F3F19F057
:100760000196A11DB11D7FBFBA2FA92F982F8827F1
:10077000860F911DA11DB11D62E0880F991FAA1F50
:10078000BB1F6A95D1F7BC012DC0FFB7F8948091CB
:10079000100190911101A0911201B0911301E6B5E1
:1007A000A89B05C0EF3F19F00196A11DB11DFFBF29
:1007B000BA2FA92F982F88278E0F911DA11DB11D2B
:1007C000E2E0880F991FAA1FBB1FEA95D1F7861B8D
:1007D000970B885E9340C8F2215030404040504013
:1007E00068517C4F211531054105510571F6089579
:1007F000789484B5826084BD84B5816084BD85B5FC
:10080000826085BD85B5816085BDEEE6F0E08081C2
:1008100081608083E1E8F0E01082808182608083E3
:10082000808181608083E0E8F0E080818160808366
:10083000E1EBF0E0808184608083E0EBF0E0808198
:1008400081608083EAE7F0E080818460808380813A
:1008500082608083808181608083808180688083E2
:100860001092C1000895982F8E3008F09E50977016
:10087000809109018295880F880F807C892B809355
:100880007C0080917A00806480937A0080917A0065
:1008900086FDFCCF2091780040917900942F80E074
:1008A00030E0282B392BC9010895CF93DF93482FCF
:1008B00050E0CA0186569F4FFC0134914A575F4F62
:1008C000FA018491882369F190E0880F991FFC0157
:1008D000E859FF4FA591B491FC01EE58FF4FC59127
:1008E000D491662351F42FB7F8948C91932F90955F
:1008F00089238C93888189230BC0623061F42FB7E0
:10090000F8948C91932F909589238C938881832BD5
:1009100088832FBF06C09FB7F8948C91832B8C934C
:100920009FBFDF91CF910895482F50E0CA018255B3
:100930009F4FFC012491CA0186569F4FFC01949160
:100940004A575F4FFA013491332309F440C0222300
:1009500051F1233071F0243028F42130A1F02230FD
:1009600011F514C02630B1F02730C1F02430D9F48D
:1009700004C0809180008F7703C0809180008F7DBC
:100980008093800010C084B58F7702C084B58F7DBE
:1009900084BD09C08091B0008F7703C08091B00002
:1009A0008F7D8093B000E32FF0E0EE0FFF1FEE5835
:1009B000FF4FA591B4912FB7F894662321F48C9141
:1009C0009095892302C08C91892B8C932FBF089519
:1009D000682F70E0CB0182559F4FFC012491CB0121
:1009E00086569F4FFC0144916A577F4FFB019491BB
:1009F000992319F420E030E03CC0222351F1233048
:100A000071F0243028F42130A1F0223011F514C007
:100A10002630B1F02730C1F02430D9F404C08091E1
:100A200080008F7703C0809180008F7D809380004D
:100A300010C084B58F7702C084B58F7D84BD09C096
:100A40008091B0008F7703C08091B0008F7D80933C
:100A5000B000892F90E0880F991F84589F4FFC01A8
:100A6000A591B4918C9120E030E0842311F021E035
:100A700030E0C90108950895CF93DF930E94F803F1
:100A80000E943B050E941703C0E0D0E00E94C9020B
:100A90002097E1F30E940000F9CFEF92FF920F93AD
:100AA0001F937B018C01611571058105910529F466
:100AB00020E030E040E050E00BC00E94D300A801ED
:100AC00097010E949605AC01CB01DA019C01AD01B2
:100AD000B901CA011F910F91FF90EF9008950097FF
:100AE00029F0BC0180E090E00E94D8000895629F48
:100AF000D001739FF001829FE00DF11D649FE00D16
:100B0000F11D929FF00D839FF00D749FF00D659F76
:100B1000F00D9927729FB00DE11DF91F639FB00D75
:100B2000E11DF91FBD01CF011124089597FB092E86
:100B300005260ED057FD04D014D00AD0001C38F47E
:100B400050954095309521953F4F4F4F5F4F0895F9
:100B5000F6F790958095709561957F4F8F4F9F4FD9
:100B60000895A1E21A2EAA1BBB1BFD010DC0AA1FEE
:100B7000BB1FEE1FFF1FA217B307E407F50720F006
:100B8000A21BB30BE40BF50B661F771F881F991F81
:100B90001A9469F760957095809590959B01AC01CA
:100BA000BD01CF0108952F923F924F925F926F92B5
:100BB0007F928F929F92AF92BF92CF92DF92EF92ED
:100BC000FF920F931F93CF93DF93CDB7DEB7CA1B6E
:100BD000DB0B0FB6F894DEBF0FBECDBF09942A8899
:100BE000398848885F846E847D848C849B84AA8441
:100BF000B984C884DF80EE80FD800C811B81AA81CE
:100C0000B981CE0FD11D0FB6F894DEBF0FBECDBF98
:080C1000ED010895F894FFCFF7
:0A0C1800010000000132000000019D
:00000001FF
