:100000000C9461000C947E000C947E000C947E0095
:100010000C947E000C947E000C947E000C947E0068
:100020000C947E000C947E000C947E000C947E0058
:100030000C947E000C947E000C947E000C947E0048
:100040000C9404030C947E000C947E000C947E00AF
:100050000C947E000C947E000C947E000C947E0028
:100060000C947E000C947E00000000002400270009
:100070002A0000000000250028002B0000000000DE
:1000800023002600290004040404040404040202DA
:100090000202020203030303030301020408102007
:1000A0004080010204081020010204081020000012
:1000B0000007000201000003040600000000000029
:1000C000000011241FBECFEFD8E0DEBFCDBF11E08E
:1000D000A0E0B1E0ECECFAE002C005900D92A8308F
:1000E000B107D9F711E0A8E0B1E001C01D92A1313C
:1000F000B107E1F70E9496040C9464050C9400008B
:10010000A0E0B0E0E6E8F0E00C943505EC01A88052
:10011000B980CA80DB80A114B104C104D10441F4C8
:1001200084E2A82E89EDB82E8BE5C82E87E0D82E64
:10013000C601B5012DE133EF41E050E00E94F0042B
:1001400027EA31E440E050E00E94D1047B018C01B9
:10015000C601B5012DE133EF41E050E00E94F0040B
:10016000CA01B9012CEE34EF4FEF5FEF0E94D104CA
:100170006E0D7F1D801F911F97FF04C0615070405E
:1001800080409048688379838A839B839B01AC017C
:100190005F77B901CA01CDB7DEB7EAE00C9451052B
:1001A0000E948000089580E091E00E948000089500
:1001B0006093000170930101809302019093030109
:1001C000089582E060E00E94410483E060E00E94C4
:1001D000410484E060E00E94410485E060E00E9408
:1001E000410486E060E00E94410487E060E00E94F4
:1001F000410488E060E00E94410489E060E00E94E0
:1002000041048AE060E00E9441048BE061E00E94CA
:100210004104089582E060E00E94410483E060E0D0
:100220000E94410484E060E00E94410485E060E0B7
:100230000E94410486E060E00E94410487E060E0A3
:100240000E94410488E060E00E94410489E060E08F
:100250000E9441048AE061E00E9441048BE060E07A
:100260000E944104089582E060E00E94410483E01E
:1002700060E00E94410484E060E00E94410485E067
:1002800060E00E94410486E060E00E94410487E053
:1002900060E00E94410488E060E00E94410489E03F
:1002A00061E00E9441048AE060E00E9441048BE02A
:1002B00060E00E944104089582E060E00E944104F1
:1002C00083E060E00E94410484E060E00E94410419
:1002D00085E060E00E94410486E060E00E94410405
:1002E00087E060E00E94410488E061E00E944104F0
:1002F00089E060E00E9441048AE060E00E944104DD
:100300008BE060E00E944104089582E060E00E947A
:10031000410483E060E00E94410484E060E00E94C8
:10032000410485E060E00E94410486E060E00E94B4
:10033000410487E061E00E94410488E060E00E949F
:10034000410489E060E00E9441048AE060E00E948C
:1003500041048BE060E00E944104089582E060E087
:100360000E94410483E060E00E94410484E060E078
:100370000E94410485E060E00E94410486E061E063
:100380000E94410487E060E00E94410488E060E050
:100390000E94410489E060E00E9441048AE060E03C
:1003A0000E9441048BE060E00E944104089582E0D5
:1003B00060E00E94410483E060E00E94410484E028
:1003C00060E00E94410485E061E00E94410486E013
:1003D00060E00E94410487E060E00E94410488E000
:1003E00060E00E94410489E060E00E9441048AE0EC
:1003F00060E00E9441048BE060E00E9441040895A7
:1004000082E060E00E94410483E060E00E944104D9
:1004100084E061E00E94410485E060E00E944104C4
:1004200086E060E00E94410487E060E00E944104B1
:1004300088E060E00E94410489E060E00E9441049D
:100440008AE060E00E9441048BE060E00E94410489
:10045000089582E060E00E94410483E061E00E9430
:10046000410484E060E00E94410485E060E00E9475
:10047000410486E060E00E94410487E060E00E9461
:10048000410488E060E00E94410489E060E00E944D
:1004900041048AE060E00E9441048BE060E00E9439
:1004A0004104089582E061E00E94410483E060E03D
:1004B0000E94410484E060E00E94410485E060E025
:1004C0000E94410486E060E00E94410487E060E011
:1004D0000E94410488E060E00E94410489E060E0FD
:1004E0000E9441048AE060E00E9441048BE060E0E9
:1004F0000E94410408956AE070E080E090E00E946C
:10050000A7046430710599F16530710584F4613098
:10051000710521F1623071051CF4672BE1F008953B
:1005200062307105F1F06330710591F51DC06730DF
:10053000710531F1683071053CF465307105D1F019
:100540006630710529F519C068307105E1F0693030
:100550007105F1F41BC00E94520208950E94290205
:1005600008950E94000208950E94D70108950E94F4
:10057000AE0108950E94850108950E945C010895CE
:100580000E94330108950E940A0108950E94E1002B
:1005900008950E947B0260910401709105018827F3
:1005A00077FD8095982F0E944C03089582E061E0CA
:1005B0000E94020483E061E00E94020484E061E0A2
:1005C0000E94020485E061E00E94020486E061E08E
:1005D0000E94020487E061E00E94020488E061E07A
:1005E0000E94020489E061E00E9402048AE061E066
:1005F0000E9402048BE061E00E94020480E00E94FD
:10060000E0030E94C90408951F920F920FB60F9243
:1006100011242F933F938F939F93AF93BF93809118
:100620000C0190910D01A0910E01B0910F0130913C
:1006300010010196A11DB11D232F2D5F2D3720F034
:100640002D570196A11DB11D2093100180930C011F
:1006500090930D01A0930E01B0930F0180910801BA
:1006600090910901A0910A01B0910B010196A11D81
:10067000B11D8093080190930901A0930A01B093E2
:100680000B01BF91AF919F918F913F912F910F904F
:100690000FBE0F901F9018959B01AC017FB7F89487
:1006A0008091080190910901A0910A01B0910B017C
:1006B00066B5A89B05C06F3F19F00196A11DB11D3D
:1006C0007FBFBA2FA92F982F8827860F911DA11DB4
:1006D000B11D62E0880F991FAA1FBB1F6A95D1F751
:1006E000BC012DC0FFB7F8948091080190910901D9
:1006F000A0910A01B0910B01E6B5A89B05C0EF3FA0
:1007000019F00196A11DB11DFFBFBA2FA92F982F77
:1007100088278E0F911DA11DB11DE2E0880F991F42
:10072000AA1FBB1FEA95D1F7861B970B885E9340E3
:10073000C8F2215030404040504068517C4F211554
:1007400031054105510571F60895789484B58260AC
:1007500084BD84B5816084BD85B5826085BD85B565
:10076000816085BDEEE6F0E0808181608083E1E814
:10077000F0E010828081826080838081816080834C
:10078000E0E8F0E0808181608083E1EBF0E080814F
:1007900084608083E0EBF0E0808181608083EAE721
:1007A000F0E08081846080838081826080838081AA
:1007B000816080838081806880831092C100089569
:1007C000982F8E3008F09E50977080910601829588
:1007D000880F880F807C892B80937C0080917A0021
:1007E000806480937A0080917A0086FDFCCF20910E
:1007F000780040917900942F80E030E0282B392B4D
:10080000C9010895CF93DF93482F50E0CA0186565F
:100810009F4FFC0134914A575F4FFA01849188231E
:1008200069F190E0880F991FFC01E859FF4FA591ED
:10083000B491FC01EE58FF4FC591D491662351F459
:100840002FB7F8948C91932F909589238C9388815E
:1008500089230BC0623061F42FB7F8948C91932FE9
:10086000909589238C938881832B88832FBF06C022
:100870009FB7F8948C91832B8C939FBFDF91CF917E
:100880000895482F50E0CA0182559F4FFC012491E2
:10089000CA0186569F4FFC0194914A575F4FFA0157
:1008A0003491332309F440C0222351F1233071F0F5
:1008B000243028F42130A1F0223011F514C0263064
:1008C000B1F02730C1F02430D9F404C08091800009
:1008D0008F7703C0809180008F7D8093800010C04F
:1008E00084B58F7702C084B58F7D84BD09C08091A7
:1008F000B0008F7703C08091B0008F7D8093B000EF
:10090000E32FF0E0EE0FFF1FEE58FF4FA591B491DB
:100910002FB7F894662321F48C919095892302C017
:100920008C91892B8C932FBF08950895CF93DF93DB
:100930000E94A5030E9495040E94D602C0E0D0E068
:100940000E94C9022097E1F30E940000F9CFEF92C4
:10095000FF920F931F937B018C0161157105810537
:10096000910529F420E030E040E050E00BC00E9407
:10097000D300A80197010E94F004AC01CB01DA0179
:100980009C01AD01B901CA011F910F91FF90EF9039
:100990000895009729F0BC0180E090E00E94D80003
:1009A0000895629FD001739FF001829FE00DF11DB9
:1009B000649FE00DF11D929FF00D839FF00D749FD9
:1009C000F00D659FF00D9927729FB00DE11DF91F85
:1009D000639FB00DE11DF91FBD01CF0111240895E2
:1009E00097FB092E05260ED057FD04D014D00AD04F
:1009F000001C38F450954095309521953F4F4F4F4E
:100A00005F4F0895F6F790958095709561957F4FAB
:100A10008F4F9F4F0895A1E21A2EAA1BBB1BFD0109
:100A20000DC0AA1FBB1FEE1FFF1FA217B307E407CD
:100A3000F50720F0A21BB30BE40BF50B661F771F25
:100A4000881F991F1A9469F7609570958095909505
:100A50009B01AC01BD01CF0108952F923F924F92AF
:100A60005F926F927F928F929F92AF92BF92CF923E
:100A7000DF92EF92FF920F931F93CF93DF93CDB747
:100A8000DEB7CA1BDB0B0FB6F894DEBF0FBECDBFBF
:100A900009942A88398848885F846E847D848C8490
:100AA0009B84AA84B984C884DF80EE80FD800C8199
:100AB0001B81AA81B981CE0FD11D0FB6F894DEBF7C
:0C0AC0000FBECDBFED010895F894FFCFEC
:080ACC00010000000A00010016
:00000001FF
